{
  "contractName": "StakingRewards",
  "abi": [
    {
      "inputs": [
        {
          "internalType": "address",
          "name": "_rewardsDistribution",
          "type": "address"
        },
        {
          "internalType": "address",
          "name": "_rewardsToken",
          "type": "address"
        },
        {
          "internalType": "address",
          "name": "_stakingToken",
          "type": "address"
        },
        {
          "internalType": "uint256",
          "name": "_minStake",
          "type": "uint256"
        },
        {
          "internalType": "uint256",
          "name": "_lowWaterMark",
          "type": "uint256"
        },
        {
          "internalType": "uint256",
          "name": "_highWaterMark",
          "type": "uint256"
        },
        {
          "internalType": "uint256",
          "name": "_maxLevel",
          "type": "uint256"
        },
        {
          "internalType": "uint256",
          "name": "_freezeDuration",
          "type": "uint256"
        }
      ],
      "payable": false,
      "stateMutability": "nonpayable",
      "type": "constructor"
    },
    {
      "anonymous": false,
      "inputs": [
        {
          "indexed": true,
          "internalType": "address",
          "name": "previousOwner",
          "type": "address"
        },
        {
          "indexed": true,
          "internalType": "address",
          "name": "newOwner",
          "type": "address"
        }
      ],
      "name": "OwnershipTransferred",
      "type": "event"
    },
    {
      "anonymous": false,
      "inputs": [
        {
          "indexed": false,
          "internalType": "uint256",
          "name": "reward",
          "type": "uint256"
        }
      ],
      "name": "RewardAdded",
      "type": "event"
    },
    {
      "anonymous": false,
      "inputs": [
        {
          "indexed": true,
          "internalType": "address",
          "name": "user",
          "type": "address"
        },
        {
          "indexed": false,
          "internalType": "uint256",
          "name": "reward",
          "type": "uint256"
        }
      ],
      "name": "RewardPaid",
      "type": "event"
    },
    {
      "anonymous": false,
      "inputs": [
        {
          "indexed": true,
          "internalType": "address",
          "name": "user",
          "type": "address"
        },
        {
          "indexed": false,
          "internalType": "uint256",
          "name": "amount",
          "type": "uint256"
        }
      ],
      "name": "Staked",
      "type": "event"
    },
    {
      "anonymous": false,
      "inputs": [
        {
          "indexed": true,
          "internalType": "address",
          "name": "user",
          "type": "address"
        },
        {
          "indexed": false,
          "internalType": "uint256",
          "name": "amount",
          "type": "uint256"
        }
      ],
      "name": "Withdrawn",
      "type": "event"
    },
    {
      "constant": true,
      "inputs": [],
      "name": "freezeDuration",
      "outputs": [
        {
          "internalType": "uint256",
          "name": "",
          "type": "uint256"
        }
      ],
      "payable": false,
      "stateMutability": "view",
      "type": "function"
    },
    {
      "constant": true,
      "inputs": [],
      "name": "highWaterMark",
      "outputs": [
        {
          "internalType": "uint256",
          "name": "",
          "type": "uint256"
        }
      ],
      "payable": false,
      "stateMutability": "view",
      "type": "function"
    },
    {
      "constant": true,
      "inputs": [
        {
          "internalType": "address",
          "name": "",
          "type": "address"
        }
      ],
      "name": "initialStakeTime",
      "outputs": [
        {
          "internalType": "uint256",
          "name": "",
          "type": "uint256"
        }
      ],
      "payable": false,
      "stateMutability": "view",
      "type": "function"
    },
    {
      "constant": true,
      "inputs": [],
      "name": "isOwner",
      "outputs": [
        {
          "internalType": "bool",
          "name": "",
          "type": "bool"
        }
      ],
      "payable": false,
      "stateMutability": "view",
      "type": "function"
    },
    {
      "constant": true,
      "inputs": [],
      "name": "lastUpdateTime",
      "outputs": [
        {
          "internalType": "uint256",
          "name": "",
          "type": "uint256"
        }
      ],
      "payable": false,
      "stateMutability": "view",
      "type": "function"
    },
    {
      "constant": true,
      "inputs": [],
      "name": "lowWaterMark",
      "outputs": [
        {
          "internalType": "uint256",
          "name": "",
          "type": "uint256"
        }
      ],
      "payable": false,
      "stateMutability": "view",
      "type": "function"
    },
    {
      "constant": true,
      "inputs": [],
      "name": "maxLevel",
      "outputs": [
        {
          "internalType": "uint256",
          "name": "",
          "type": "uint256"
        }
      ],
      "payable": false,
      "stateMutability": "view",
      "type": "function"
    },
    {
      "constant": true,
      "inputs": [],
      "name": "minStake",
      "outputs": [
        {
          "internalType": "uint256",
          "name": "",
          "type": "uint256"
        }
      ],
      "payable": false,
      "stateMutability": "view",
      "type": "function"
    },
    {
      "constant": true,
      "inputs": [],
      "name": "owner",
      "outputs": [
        {
          "internalType": "address",
          "name": "",
          "type": "address"
        }
      ],
      "payable": false,
      "stateMutability": "view",
      "type": "function"
    },
    {
      "constant": true,
      "inputs": [],
      "name": "periodFinish",
      "outputs": [
        {
          "internalType": "uint256",
          "name": "",
          "type": "uint256"
        }
      ],
      "payable": false,
      "stateMutability": "view",
      "type": "function"
    },
    {
      "constant": true,
      "inputs": [],
      "name": "r1Ratio",
      "outputs": [
        {
          "internalType": "uint256",
          "name": "",
          "type": "uint256"
        }
      ],
      "payable": false,
      "stateMutability": "view",
      "type": "function"
    },
    {
      "constant": true,
      "inputs": [
        {
          "internalType": "address",
          "name": "",
          "type": "address"
        }
      ],
      "name": "referrerMap",
      "outputs": [
        {
          "internalType": "address",
          "name": "",
          "type": "address"
        }
      ],
      "payable": false,
      "stateMutability": "view",
      "type": "function"
    },
    {
      "constant": false,
      "inputs": [],
      "name": "renounceOwnership",
      "outputs": [],
      "payable": false,
      "stateMutability": "nonpayable",
      "type": "function"
    },
    {
      "constant": true,
      "inputs": [],
      "name": "rewardPerTokenStored",
      "outputs": [
        {
          "internalType": "uint256",
          "name": "",
          "type": "uint256"
        }
      ],
      "payable": false,
      "stateMutability": "view",
      "type": "function"
    },
    {
      "constant": true,
      "inputs": [],
      "name": "rewardPerWeightStored",
      "outputs": [
        {
          "internalType": "uint256",
          "name": "",
          "type": "uint256"
        }
      ],
      "payable": false,
      "stateMutability": "view",
      "type": "function"
    },
    {
      "constant": true,
      "inputs": [],
      "name": "rewardRate",
      "outputs": [
        {
          "internalType": "uint256",
          "name": "",
          "type": "uint256"
        }
      ],
      "payable": false,
      "stateMutability": "view",
      "type": "function"
    },
    {
      "constant": true,
      "inputs": [],
      "name": "rewardRateByWeight",
      "outputs": [
        {
          "internalType": "uint256",
          "name": "",
          "type": "uint256"
        }
      ],
      "payable": false,
      "stateMutability": "view",
      "type": "function"
    },
    {
      "constant": true,
      "inputs": [
        {
          "internalType": "address",
          "name": "",
          "type": "address"
        }
      ],
      "name": "rewards",
      "outputs": [
        {
          "internalType": "uint256",
          "name": "",
          "type": "uint256"
        }
      ],
      "payable": false,
      "stateMutability": "view",
      "type": "function"
    },
    {
      "constant": true,
      "inputs": [
        {
          "internalType": "address",
          "name": "",
          "type": "address"
        }
      ],
      "name": "rewardsByWeight",
      "outputs": [
        {
          "internalType": "uint256",
          "name": "",
          "type": "uint256"
        }
      ],
      "payable": false,
      "stateMutability": "view",
      "type": "function"
    },
    {
      "constant": true,
      "inputs": [],
      "name": "rewardsDistribution",
      "outputs": [
        {
          "internalType": "address",
          "name": "",
          "type": "address"
        }
      ],
      "payable": false,
      "stateMutability": "view",
      "type": "function"
    },
    {
      "constant": true,
      "inputs": [],
      "name": "rewardsDuration",
      "outputs": [
        {
          "internalType": "uint256",
          "name": "",
          "type": "uint256"
        }
      ],
      "payable": false,
      "stateMutability": "view",
      "type": "function"
    },
    {
      "constant": true,
      "inputs": [],
      "name": "rewardsToken",
      "outputs": [
        {
          "internalType": "contract IERC20",
          "name": "",
          "type": "address"
        }
      ],
      "payable": false,
      "stateMutability": "view",
      "type": "function"
    },
    {
      "constant": false,
      "inputs": [
        {
          "internalType": "address",
          "name": "_rewardDistribution",
          "type": "address"
        }
      ],
      "name": "setRewardDistribution",
      "outputs": [],
      "payable": false,
      "stateMutability": "nonpayable",
      "type": "function"
    },
    {
      "constant": true,
      "inputs": [],
      "name": "stakingToken",
      "outputs": [
        {
          "internalType": "contract IERC20",
          "name": "",
          "type": "address"
        }
      ],
      "payable": false,
      "stateMutability": "view",
      "type": "function"
    },
    {
      "constant": true,
      "inputs": [],
      "name": "totalWeight",
      "outputs": [
        {
          "internalType": "uint256",
          "name": "",
          "type": "uint256"
        }
      ],
      "payable": false,
      "stateMutability": "view",
      "type": "function"
    },
    {
      "constant": false,
      "inputs": [
        {
          "internalType": "address",
          "name": "newOwner",
          "type": "address"
        }
      ],
      "name": "transferOwnership",
      "outputs": [],
      "payable": false,
      "stateMutability": "nonpayable",
      "type": "function"
    },
    {
      "constant": true,
      "inputs": [
        {
          "internalType": "address",
          "name": "",
          "type": "address"
        }
      ],
      "name": "userRewardPerTokenPaid",
      "outputs": [
        {
          "internalType": "uint256",
          "name": "",
          "type": "uint256"
        }
      ],
      "payable": false,
      "stateMutability": "view",
      "type": "function"
    },
    {
      "constant": true,
      "inputs": [
        {
          "internalType": "address",
          "name": "",
          "type": "address"
        }
      ],
      "name": "userRewardPerWeightPaid",
      "outputs": [
        {
          "internalType": "uint256",
          "name": "",
          "type": "uint256"
        }
      ],
      "payable": false,
      "stateMutability": "view",
      "type": "function"
    },
    {
      "constant": true,
      "inputs": [
        {
          "internalType": "address",
          "name": "",
          "type": "address"
        }
      ],
      "name": "weight",
      "outputs": [
        {
          "internalType": "uint256",
          "name": "",
          "type": "uint256"
        }
      ],
      "payable": false,
      "stateMutability": "view",
      "type": "function"
    },
    {
      "constant": true,
      "inputs": [],
      "name": "totalSupply",
      "outputs": [
        {
          "internalType": "uint256",
          "name": "",
          "type": "uint256"
        }
      ],
      "payable": false,
      "stateMutability": "view",
      "type": "function"
    },
    {
      "constant": true,
      "inputs": [
        {
          "internalType": "address",
          "name": "account",
          "type": "address"
        }
      ],
      "name": "balanceOf",
      "outputs": [
        {
          "internalType": "uint256",
          "name": "",
          "type": "uint256"
        }
      ],
      "payable": false,
      "stateMutability": "view",
      "type": "function"
    },
    {
      "constant": true,
      "inputs": [],
      "name": "lastTimeRewardApplicable",
      "outputs": [
        {
          "internalType": "uint256",
          "name": "",
          "type": "uint256"
        }
      ],
      "payable": false,
      "stateMutability": "view",
      "type": "function"
    },
    {
      "constant": true,
      "inputs": [],
      "name": "rewardPerToken",
      "outputs": [
        {
          "internalType": "uint256",
          "name": "",
          "type": "uint256"
        }
      ],
      "payable": false,
      "stateMutability": "view",
      "type": "function"
    },
    {
      "constant": true,
      "inputs": [
        {
          "internalType": "address",
          "name": "account",
          "type": "address"
        }
      ],
      "name": "earned",
      "outputs": [
        {
          "internalType": "uint256",
          "name": "",
          "type": "uint256"
        }
      ],
      "payable": false,
      "stateMutability": "view",
      "type": "function"
    },
    {
      "constant": true,
      "inputs": [],
      "name": "getRewardForDuration",
      "outputs": [
        {
          "internalType": "uint256",
          "name": "",
          "type": "uint256"
        }
      ],
      "payable": false,
      "stateMutability": "view",
      "type": "function"
    },
    {
      "constant": true,
      "inputs": [],
      "name": "rewardPerWeight",
      "outputs": [
        {
          "internalType": "uint256",
          "name": "",
          "type": "uint256"
        }
      ],
      "payable": false,
      "stateMutability": "view",
      "type": "function"
    },
    {
      "constant": true,
      "inputs": [
        {
          "internalType": "address",
          "name": "account",
          "type": "address"
        }
      ],
      "name": "earnedByWeight",
      "outputs": [
        {
          "internalType": "uint256",
          "name": "",
          "type": "uint256"
        }
      ],
      "payable": false,
      "stateMutability": "view",
      "type": "function"
    },
    {
      "constant": true,
      "inputs": [],
      "name": "getWeightForDuration",
      "outputs": [
        {
          "internalType": "uint256",
          "name": "",
          "type": "uint256"
        }
      ],
      "payable": false,
      "stateMutability": "view",
      "type": "function"
    },
    {
      "constant": true,
      "inputs": [
        {
          "internalType": "uint256",
          "name": "balance",
          "type": "uint256"
        },
        {
          "internalType": "uint256",
          "name": "amount",
          "type": "uint256"
        }
      ],
      "name": "getDeltaWeight",
      "outputs": [
        {
          "internalType": "uint256",
          "name": "",
          "type": "uint256"
        }
      ],
      "payable": false,
      "stateMutability": "view",
      "type": "function"
    },
    {
      "constant": false,
      "inputs": [
        {
          "internalType": "uint256",
          "name": "amount",
          "type": "uint256"
        },
        {
          "internalType": "address",
          "name": "ref",
          "type": "address"
        }
      ],
      "name": "stake",
      "outputs": [],
      "payable": false,
      "stateMutability": "nonpayable",
      "type": "function"
    },
    {
      "constant": false,
      "inputs": [
        {
          "internalType": "uint256",
          "name": "amount",
          "type": "uint256"
        }
      ],
      "name": "withdraw",
      "outputs": [],
      "payable": false,
      "stateMutability": "nonpayable",
      "type": "function"
    },
    {
      "constant": false,
      "inputs": [],
      "name": "getReward",
      "outputs": [],
      "payable": false,
      "stateMutability": "nonpayable",
      "type": "function"
    },
    {
      "constant": false,
      "inputs": [],
      "name": "getRewardWeight",
      "outputs": [],
      "payable": false,
      "stateMutability": "nonpayable",
      "type": "function"
    },
    {
      "constant": false,
      "inputs": [],
      "name": "getRewardAll",
      "outputs": [],
      "payable": false,
      "stateMutability": "nonpayable",
      "type": "function"
    },
    {
      "constant": false,
      "inputs": [],
      "name": "exit",
      "outputs": [],
      "payable": false,
      "stateMutability": "nonpayable",
      "type": "function"
    },
    {
      "constant": false,
      "inputs": [
        {
          "internalType": "uint256",
          "name": "reward",
          "type": "uint256"
        }
      ],
      "name": "notifyRewardAmount",
      "outputs": [],
      "payable": false,
      "stateMutability": "nonpayable",
      "type": "function"
    }
  ],
  "bytecode": "0x60806040526000600555624f1a0060065560006007556000600c55686c6b935b8bbd40000060135568a2a15d09519be000006014556801158e460913d00000601555603260175561025860185534801561005857600080fd5b50604051620021ca380380620021ca833981810160405261010081101561007e57600080fd5b508051602082015160408301516060840151608085015160a086015160c087015160e0909701519596949593949293919290916100c26001600160e01b0361017f16565b600080546001600160a01b0319166001600160a01b03928316178082556040519216917f8be0079c531659141344cd1fd0a4f28419497f9722a3daafe3b4186f6b6457e0908290a360016002819055600380546001600160a01b03808b166001600160a01b031992831617909255600480548a84169083161790558254918b16911617905560158590556013849055601483905560168290558061016c5762093a80601855610172565b60188190555b5050505050505050610183565b3390565b61203780620001936000396000f3fe608060405234801561001057600080fd5b50600436106102895760003560e01c806372f702f31161015c578063cc06c359116100ce578063e9fad8ee11610087578063e9fad8ee146105a7578063ebe2b12b146105af578063f2fde38b146105b7578063f4396e2a146105dd578063f7281ccb14610603578063fde8744d1461060b57610289565b8063cc06c35914610559578063cd3daf9d14610561578063d146ef4e14610569578063d1af0c7d14610571578063d9dd643014610579578063df136d651461059f57610289565b80638b876347116101205780638b876347146104f75780638da5cb5b1461051d5780638f32d59b1461052557806396c82e5714610541578063bce40ee214610549578063c8f33c911461055157610289565b806372f702f31461048d5780637acb7757146104955780637b0a47ee146104c157806380faa57d146104c957806389f99dc9146104d157610289565b8063375b3c0a116102005780634a51f9c5116101b95780634a51f9c5146103e55780635173b53c1461040b578063589e0f11146104135780635c29c30e1461043957806370a082311461045f578063715018a61461048557610289565b8063375b3c0a14610384578063386a95251461038c5780633c6b16ab146103945780633d18b912146103b15780633fc6df6e146103b9578063440991bd146103dd57610289565b80631d01ff5a116102525780631d01ff5a146103245780631e8410da146103475780632ac3f4501461034f5780632e1a7d4d146103575780632eab752d146103745780633228dd591461037c57610289565b80628cc2621461028e5780630700037d146102c65780630d68b761146102ec57806318160ddd146103145780631c1f78eb1461031c575b600080fd5b6102b4600480360360208110156102a457600080fd5b50356001600160a01b0316610613565b60408051918252519081900360200190f35b6102b4600480360360208110156102dc57600080fd5b50356001600160a01b03166106ab565b6103126004803603602081101561030257600080fd5b50356001600160a01b03166106bd565b005b6102b4610738565b6102b461073f565b6102b46004803603604081101561033a57600080fd5b508035906020013561075d565b6102b46107d5565b6102b46107db565b6103126004803603602081101561036d57600080fd5b5035610835565b6102b4610b8e565b6102b4610b94565b6102b4610b9a565b6102b4610ba0565b610312600480360360208110156103aa57600080fd5b5035610ba6565b610312610f87565b6103c16110eb565b604080516001600160a01b039092168252519081900360200190f35b6102b46110fa565b6102b4600480360360208110156103fb57600080fd5b50356001600160a01b0316611100565b610312611112565b6102b46004803603602081101561042957600080fd5b50356001600160a01b03166111f6565b6102b46004803603602081101561044f57600080fd5b50356001600160a01b031661128c565b6102b46004803603602081101561047557600080fd5b50356001600160a01b031661129e565b6103126112b9565b6103c161135c565b610312600480360360408110156104ab57600080fd5b50803590602001356001600160a01b031661136b565b6102b4611671565b6102b4611677565b6102b4600480360360208110156104e757600080fd5b50356001600160a01b0316611685565b6102b46004803603602081101561050d57600080fd5b50356001600160a01b0316611697565b6103c16116a9565b61052d6116b8565b604080519115158252519081900360200190f35b6102b46116dc565b6103126116e2565b6102b46117dc565b6102b46117e2565b6102b46117e8565b6102b4611836565b6103c161184f565b6103c16004803603602081101561058f57600080fd5b50356001600160a01b031661185e565b6102b4611879565b61031261187f565b6102b46118a2565b610312600480360360208110156105cd57600080fd5b50356001600160a01b03166118a8565b6102b4600480360360208110156105f357600080fd5b50356001600160a01b031661190a565b6102b461191c565b6102b4611922565b6001600160a01b0381166000908152600b6020908152604080832054600a9092528220546106a3919061069790670de0b6b3a76400009061068b906106669061065a6117e8565b9063ffffffff61192816565b6001600160a01b0388166000908152601a60205260409020549063ffffffff61198516565b9063ffffffff6119e516565b9063ffffffff611a4f16565b90505b919050565b600b6020526000908152604090205481565b6106c56116b8565b610716576040805162461bcd60e51b815260206004820181905260248201527f4f776e61626c653a2063616c6c6572206973206e6f7420746865206f776e6572604482015290519081900360640190fd5b600180546001600160a01b0319166001600160a01b0392909216919091179055565b6019545b90565b600061075860065460075461198590919063ffffffff16565b905090565b60135460145460009182918585018287111561079e57818711156107845760009350610799565b818110610795578682039350610799565b8593505b6107c8565b8287116107c8578181106107b4578193506107ba565b85870193505b828714156107c85786840393505b5091925050505b92915050565b60145481565b6000601054600014156107f15750600d5461073c565b61075861082660105461068b670de0b6b3a764000061081a600c5461081a60085461065a611677565b9063ffffffff61198516565b600d549063ffffffff611a4f16565b6002805460010190819055336108496117e8565b6009556108546107db565b600d5561085f611677565b6008556001600160a01b038116156108da5761087a81610613565b6001600160a01b0382166000908152600b6020908152604080832093909355600954600a909152919020556108ae816111f6565b6001600160a01b0382166000908152600f6020908152604080832093909355600d54600e909152919020555b60008311610923576040805162461bcd60e51b8152602060048201526011602482015270043616e6e6f74207769746864726177203607c1b604482015290519081900360640190fd5b601854336000908152601b60205260409020544291011161098b576040805162461bcd60e51b815260206004820152601860248201527f467265657a65642c2063616e6e6f742077697468647261770000000000000000604482015290519081900360640190fd5b336000908152601a60205260408120546109ab908563ffffffff61192816565b9050336000908152601160205260409020546001600160a01b03168015610aa05760006109d8838761075d565b90508015610a9e5760005b6016548162ffffff161015610a9c576001600160a01b038316600090815260126020526040902054610a1b908363ffffffff61192816565b6001600160a01b0384166000908152601260205260409020556015546001600160a01b0384166000908152601a602052604090205410610a6c57601054610a68908363ffffffff61192816565b6010555b6001600160a01b039283166000908152601160205260409020549092169182610a9457610a9c565b6001016109e3565b505b505b610aab338387611aa9565b601954610abe908663ffffffff61192816565b601955336000908152601a6020526040902054610ae1908663ffffffff61192816565b336000818152601a6020526040902091909155600454610b0d916001600160a01b039091169087611af6565b60408051868152905133917f7084f5476618d8e60b11ef0d7d3f06914655adb8793e28ff7f018d4c76d505d5919081900360200190a25050506002548114610b8a576040805162461bcd60e51b815260206004820152601f6024820152600080516020611f48833981519152604482015290519081900360640190fd5b5050565b60175481565b600d5481565b60155481565b60065481565b6001546001600160a01b03163314610bef5760405162461bcd60e51b815260040180806020018281038252602a815260200180611faf602a913960400191505060405180910390fd5b6000610bf96117e8565b600955610c046107db565b600d55610c0f611677565b6008556001600160a01b03811615610c8a57610c2a81610613565b6001600160a01b0382166000908152600b6020908152604080832093909355600954600a90915291902055610c5e816111f6565b6001600160a01b0382166000908152600f6020908152604080832093909355600d54600e909152919020555b606460175411158015610c9b575060015b610cdc576040805162461bcd60e51b815260206004820152600d60248201526c496e76616c696420726174696f60981b604482015290519081900360640190fd5b6000610cf8606461068b6017548661198590919063ffffffff16565b90506000610d0c848363ffffffff61192816565b90506005544210610d4a57600654610d2b90839063ffffffff6119e516565b600755600654610d4290829063ffffffff6119e516565b600c55610dce565b600554600090610d60904263ffffffff61192816565b90506000610d796007548361198590919063ffffffff16565b600654909150610d939061068b868463ffffffff611a4f16565b600755600c54600090610dad90849063ffffffff61198516565b600654909150610dc79061068b868463ffffffff611a4f16565b600c555050505b600354604080516340c10f1960e01b81523060048201526024810187905290516001600160a01b03909216916340c10f199160448082019260009290919082900301818387803b158015610e2157600080fd5b505af1158015610e35573d6000803e3d6000fd5b5050600354604080516370a0823160e01b81523060048201529051600094506001600160a01b0390921692506370a08231916024808301926020929190829003018186803b158015610e8657600080fd5b505afa158015610e9a573d6000803e3d6000fd5b505050506040513d6020811015610eb057600080fd5b5051600654909150610ec990829063ffffffff6119e516565b600c54600754610ede9163ffffffff611a4f16565b1115610f31576040805162461bcd60e51b815260206004820152601860248201527f50726f76696465642072657761726420746f6f20686967680000000000000000604482015290519081900360640190fd5b426008819055600654610f4a919063ffffffff611a4f16565b6005556040805186815290517fde88a922e0d3b88b24e9623efeb464919c6bf9f66857a65e2bfcf2ce87a9433d9181900360200190a15050505050565b600280546001019081905533610f9b6117e8565b600955610fa66107db565b600d55610fb1611677565b6008556001600160a01b0381161561102c57610fcc81610613565b6001600160a01b0382166000908152600b6020908152604080832093909355600954600a90915291902055611000816111f6565b6001600160a01b0382166000908152600f6020908152604080832093909355600d54600e909152919020555b336000908152600b602052604090205480156110a257336000818152600b602052604081205560035461106b916001600160a01b039091169083611af6565b60408051828152905133917fe2403640ba68fed3a2f88b7557551d1993f84b99bb10ff833f0cf8db0c5e0486919081900360200190a25b505060025481146110e8576040805162461bcd60e51b815260206004820152601f6024820152600080516020611f48833981519152604482015290519081900360640190fd5b50565b6001546001600160a01b031681565b60185481565b601b6020526000908152604090205481565b6002805460010190819055336111266117e8565b6009556111316107db565b600d5561113c611677565b6008556001600160a01b038116156111b75761115781610613565b6001600160a01b0382166000908152600b6020908152604080832093909355600954600a9091529190205561118b816111f6565b6001600160a01b0382166000908152600f6020908152604080832093909355600d54600e909152919020555b336000908152600f602052604090205480156110a257336000818152600f602052604081205560035461106b916001600160a01b039091169083611af6565b6001600160a01b0381166000908152601a6020908152604080832054601290925282205460155482101561122f576000925050506106a6565b6001600160a01b0384166000908152600f6020908152604080832054600e90925290912054611284919061069790670de0b6b3a76400009061068b906112779061065a6107db565b869063ffffffff61198516565b949350505050565b600e6020526000908152604090205481565b6001600160a01b03166000908152601a602052604090205490565b6112c16116b8565b611312576040805162461bcd60e51b815260206004820181905260248201527f4f776e61626c653a2063616c6c6572206973206e6f7420746865206f776e6572604482015290519081900360640190fd5b600080546040516001600160a01b03909116907f8be0079c531659141344cd1fd0a4f28419497f9722a3daafe3b4186f6b6457e0908390a3600080546001600160a01b0319169055565b6004546001600160a01b031681565b60028054600101908190553361137f6117e8565b60095561138a6107db565b600d55611395611677565b6008556001600160a01b03811615611410576113b081610613565b6001600160a01b0382166000908152600b6020908152604080832093909355600954600a909152919020556113e4816111f6565b6001600160a01b0382166000908152600f6020908152604080832093909355600d54600e909152919020555b60008411611456576040805162461bcd60e51b815260206004820152600e60248201526d043616e6e6f74207374616b6520360941b604482015290519081900360640190fd5b336000818152601a6020526040812054916114719086611b48565b90506001600160a01b0381161561155a57336000908152601a602052604081205461149c908861075d565b905080156115585760005b6016548162ffffff161015611556576001600160a01b0383166000908152601260205260409020546114df908363ffffffff611a4f16565b6001600160a01b038416600090815260126020908152604080832093909355601554601a909152919020541061152657601054611522908363ffffffff611a4f16565b6010555b6001600160a01b03928316600090815260116020526040902054909216918261154e57611556565b6001016114a7565b505b505b611565338388611c22565b601954611578908763ffffffff611a4f16565b601955336000908152601a602052604090205461159b908763ffffffff611a4f16565b336000818152601a60205260409020919091556004546115c8916001600160a01b03909116903089611c6f565b336000908152601b60205260409020546115ef57336000908152601b602052604090204290555b60408051878152905133917f9e71bc8eea02a63969f509818f2dafb9254532904319f9dbda79b67bd34a5f3d919081900360200190a2505050600254811461166c576040805162461bcd60e51b815260206004820152601f6024820152600080516020611f48833981519152604482015290519081900360640190fd5b505050565b60075481565b600061075842600554611ccf565b600f6020526000908152604090205481565b600a6020526000908152604090205481565b6000546001600160a01b031690565b600080546001600160a01b03166116cd611ce5565b6001600160a01b031614905090565b60105481565b6002805460010190819055336116f66117e8565b6009556117016107db565b600d5561170c611677565b6008556001600160a01b038116156117875761172781610613565b6001600160a01b0382166000908152600b6020908152604080832093909355600954600a9091529190205561175b816111f6565b6001600160a01b0382166000908152600f6020908152604080832093909355600d54600e909152919020555b61178f610f87565b611797611112565b5060025481146110e8576040805162461bcd60e51b815260206004820152601f6024820152600080516020611f48833981519152604482015290519081900360640190fd5b60085481565b60165481565b6000601954600014156117fe575060095461073c565b61075861182760195461068b670de0b6b3a764000061081a60075461081a60085461065a611677565b6009549063ffffffff611a4f16565b6000610758600654600c5461198590919063ffffffff16565b6003546001600160a01b031681565b6011602052600090815260409020546001600160a01b031681565b60095481565b336000908152601a602052604090205461189890610835565b6118a06116e2565b565b60055481565b6118b06116b8565b611901576040805162461bcd60e51b815260206004820181905260248201527f4f776e61626c653a2063616c6c6572206973206e6f7420746865206f776e6572604482015290519081900360640190fd5b6110e881611ce9565b60126020526000908152604090205481565b600c5481565b60135481565b60008282111561197f576040805162461bcd60e51b815260206004820152601e60248201527f536166654d6174683a207375627472616374696f6e206f766572666c6f770000604482015290519081900360640190fd5b50900390565b600082611994575060006107cf565b828202828482816119a157fe5b04146119de5760405162461bcd60e51b8152600401808060200182810382526021815260200180611f8e6021913960400191505060405180910390fd5b9392505050565b6000808211611a3b576040805162461bcd60e51b815260206004820152601a60248201527f536166654d6174683a206469766973696f6e206279207a65726f000000000000604482015290519081900360640190fd5b6000828481611a4657fe5b04949350505050565b6000828201838110156119de576040805162461bcd60e51b815260206004820152601b60248201527f536166654d6174683a206164646974696f6e206f766572666c6f770000000000604482015290519081900360640190fd5b60155482108015611abe575060155481830110155b1561166c576001600160a01b038316600090815260126020526040902054601054611aee9163ffffffff61192816565b60105561166c565b604080516001600160a01b038416602482015260448082018490528251808303909101815260649091019091526020810180516001600160e01b031663a9059cbb60e01b17905261166c908490611d89565b6001600160a01b038083166000908152601a60209081526040808320546012835281842054601190935290832054929390921682158015611b87575081155b8015611b9a57506001600160a01b038116155b15611c19576001600160a01b0385166000908152601b602052604090205415801590611be357506001600160a01b03858116600090815260116020526040902054811690871614155b15611c1957506001600160a01b03858116600090815260116020526040902080546001600160a01b031916918616919091179055835b95945050505050565b60155482108015611c37575060155481830110155b1561166c576001600160a01b038316600090815260126020526040902054601054611c679163ffffffff611a4f16565b601055505050565b604080516001600160a01b0385811660248301528416604482015260648082018490528251808303909101815260849091019091526020810180516001600160e01b03166323b872dd60e01b179052611cc9908590611d89565b50505050565b6000818310611cde57816119de565b5090919050565b3390565b6001600160a01b038116611d2e5760405162461bcd60e51b8152600401808060200182810382526026815260200180611f686026913960400191505060405180910390fd5b600080546040516001600160a01b03808516939216917f8be0079c531659141344cd1fd0a4f28419497f9722a3daafe3b4186f6b6457e091a3600080546001600160a01b0319166001600160a01b0392909216919091179055565b611d9b826001600160a01b0316611f41565b611dec576040805162461bcd60e51b815260206004820152601f60248201527f5361666545524332303a2063616c6c20746f206e6f6e2d636f6e747261637400604482015290519081900360640190fd5b60006060836001600160a01b0316836040518082805190602001908083835b60208310611e2a5780518252601f199092019160209182019101611e0b565b6001836020036101000a0380198251168184511680821785525050505050509050019150506000604051808303816000865af19150503d8060008114611e8c576040519150601f19603f3d011682016040523d82523d6000602084013e611e91565b606091505b509150915081611ee8576040805162461bcd60e51b815260206004820181905260248201527f5361666545524332303a206c6f772d6c6576656c2063616c6c206661696c6564604482015290519081900360640190fd5b805115611cc957808060200190516020811015611f0457600080fd5b5051611cc95760405162461bcd60e51b815260040180806020018281038252602a815260200180611fd9602a913960400191505060405180910390fd5b3b15159056fe5265656e7472616e637947756172643a207265656e7472616e742063616c6c004f776e61626c653a206e6577206f776e657220697320746865207a65726f2061646472657373536166654d6174683a206d756c7469706c69636174696f6e206f766572666c6f7743616c6c6572206973206e6f742052657761726473446973747269627574696f6e20636f6e74726163745361666545524332303a204552433230206f7065726174696f6e20646964206e6f742073756363656564a265627a7a7231582074d27bef2f0eeebc56dddd86ef7116961d586c0ced9671a43d4c106ee90bbf8364736f6c63430005110032",
  "source": "pragma solidity ^0.5.16;\n\n/**\n * @dev Standard math utilities missing in the Solidity language.\n */\nlibrary Math {\n    /**\n     * @dev Returns the largest of two numbers.\n     */\n    function max(uint256 a, uint256 b) internal pure returns (uint256) {\n        return a >= b ? a : b;\n    }\n\n    /**\n     * @dev Returns the smallest of two numbers.\n     */\n    function min(uint256 a, uint256 b) internal pure returns (uint256) {\n        return a < b ? a : b;\n    }\n\n    /**\n     * @dev Returns the average of two numbers. The result is rounded towards\n     * zero.\n     */\n    function average(uint256 a, uint256 b) internal pure returns (uint256) {\n        // (a + b) / 2 can overflow, so we distribute\n        return (a / 2) + (b / 2) + ((a % 2 + b % 2) / 2);\n    }\n}\n\n/**\n * @dev Wrappers over Solidity's arithmetic operations with added overflow\n * checks.\n *\n * Arithmetic operations in Solidity wrap on overflow. This can easily result\n * in bugs, because programmers usually assume that an overflow raises an\n * error, which is the standard behavior in high level programming languages.\n * `SafeMath` restores this intuition by reverting the transaction when an\n * operation overflows.\n *\n * Using this library instead of the unchecked operations eliminates an entire\n * class of bugs, so it's recommended to use it always.\n */\nlibrary SafeMath {\n    /**\n     * @dev Returns the addition of two unsigned integers, reverting on\n     * overflow.\n     *\n     * Counterpart to Solidity's `+` operator.\n     *\n     * Requirements:\n     * - Addition cannot overflow.\n     */\n    function add(uint256 a, uint256 b) internal pure returns (uint256) {\n        uint256 c = a + b;\n        require(c >= a, \"SafeMath: addition overflow\");\n\n        return c;\n    }\n\n    /**\n     * @dev Returns the subtraction of two unsigned integers, reverting on\n     * overflow (when the result is negative).\n     *\n     * Counterpart to Solidity's `-` operator.\n     *\n     * Requirements:\n     * - Subtraction cannot overflow.\n     */\n    function sub(uint256 a, uint256 b) internal pure returns (uint256) {\n        require(b <= a, \"SafeMath: subtraction overflow\");\n        uint256 c = a - b;\n\n        return c;\n    }\n\n    /**\n     * @dev Returns the multiplication of two unsigned integers, reverting on\n     * overflow.\n     *\n     * Counterpart to Solidity's `*` operator.\n     *\n     * Requirements:\n     * - Multiplication cannot overflow.\n     */\n    function mul(uint256 a, uint256 b) internal pure returns (uint256) {\n        // Gas optimization: this is cheaper than requiring 'a' not being zero, but the\n        // benefit is lost if 'b' is also tested.\n        // See: https://github.com/OpenZeppelin/openzeppelin-solidity/pull/522\n        if (a == 0) {\n            return 0;\n        }\n\n        uint256 c = a * b;\n        require(c / a == b, \"SafeMath: multiplication overflow\");\n\n        return c;\n    }\n\n    /**\n     * @dev Returns the integer division of two unsigned integers. Reverts on\n     * division by zero. The result is rounded towards zero.\n     *\n     * Counterpart to Solidity's `/` operator. Note: this function uses a\n     * `revert` opcode (which leaves remaining gas untouched) while Solidity\n     * uses an invalid opcode to revert (consuming all remaining gas).\n     *\n     * Requirements:\n     * - The divisor cannot be zero.\n     */\n    function div(uint256 a, uint256 b) internal pure returns (uint256) {\n        // Solidity only automatically asserts when dividing by 0\n        require(b > 0, \"SafeMath: division by zero\");\n        uint256 c = a / b;\n        // assert(a == b * c + a % b); // There is no case in which this doesn't hold\n\n        return c;\n    }\n\n    /**\n     * @dev Returns the remainder of dividing two unsigned integers. (unsigned integer modulo),\n     * Reverts when dividing by zero.\n     *\n     * Counterpart to Solidity's `%` operator. This function uses a `revert`\n     * opcode (which leaves remaining gas untouched) while Solidity uses an\n     * invalid opcode to revert (consuming all remaining gas).\n     *\n     * Requirements:\n     * - The divisor cannot be zero.\n     */\n    function mod(uint256 a, uint256 b) internal pure returns (uint256) {\n        require(b != 0, \"SafeMath: modulo by zero\");\n        return a % b;\n    }\n}\n\n/**\n * @dev Interface of the ERC20 standard as defined in the EIP. Does not include\n * the optional functions; to access them see `ERC20Detailed`.\n */\ninterface IERC20 {\n    /**\n     * @dev Returns the amount of tokens in existence.\n     */\n    function totalSupply() external view returns (uint256);\n\n    /**\n     * @dev Returns the amount of tokens owned by `account`.\n     */\n    function balanceOf(address account) external view returns (uint256);\n\n    /**\n     * @dev Moves `amount` tokens from the caller's account to `recipient`.\n     *\n     * Returns a boolean value indicating whether the operation succeeded.\n     *\n     * Emits a `Transfer` event.\n     */\n    function transfer(address recipient, uint256 amount) external returns (bool);\n\n    function mint(address account, uint amount) external;\n\n    /**\n     * @dev Returns the remaining number of tokens that `spender` will be\n     * allowed to spend on behalf of `owner` through `transferFrom`. This is\n     * zero by default.\n     *\n     * This value changes when `approve` or `transferFrom` are called.\n     */\n    function allowance(address owner, address spender) external view returns (uint256);\n\n    /**\n     * @dev Sets `amount` as the allowance of `spender` over the caller's tokens.\n     *\n     * Returns a boolean value indicating whether the operation succeeded.\n     *\n     * > Beware that changing an allowance with this method brings the risk\n     * that someone may use both the old and the new allowance by unfortunate\n     * transaction ordering. One possible solution to mitigate this race\n     * condition is to first reduce the spender's allowance to 0 and set the\n     * desired value afterwards:\n     * https://github.com/ethereum/EIPs/issues/20#issuecomment-263524729\n     *\n     * Emits an `Approval` event.\n     */\n    function approve(address spender, uint256 amount) external returns (bool);\n\n    /**\n     * @dev Moves `amount` tokens from `sender` to `recipient` using the\n     * allowance mechanism. `amount` is then deducted from the caller's\n     * allowance.\n     *\n     * Returns a boolean value indicating whether the operation succeeded.\n     *\n     * Emits a `Transfer` event.\n     */\n    function transferFrom(address sender, address recipient, uint256 amount) external returns (bool);\n\n    /**\n     * @dev Emitted when `value` tokens are moved from one account (`from`) to\n     * another (`to`).\n     *\n     * Note that `value` may be zero.\n     */\n    event Transfer(address indexed from, address indexed to, uint256 value);\n\n    /**\n     * @dev Emitted when the allowance of a `spender` for an `owner` is set by\n     * a call to `approve`. `value` is the new allowance.\n     */\n    event Approval(address indexed owner, address indexed spender, uint256 value);\n}\n\n/**\n * @dev Optional functions from the ERC20 standard.\n */\ncontract ERC20Detailed is IERC20 {\n    string private _name;\n    string private _symbol;\n    uint8 private _decimals;\n\n    /**\n     * @dev Sets the values for `name`, `symbol`, and `decimals`. All three of\n     * these values are immutable: they can only be set once during\n     * construction.\n     */\n    constructor (string memory name, string memory symbol, uint8 decimals) public {\n        _name = name;\n        _symbol = symbol;\n        _decimals = decimals;\n    }\n\n    /**\n     * @dev Returns the name of the token.\n     */\n    function name() public view returns (string memory) {\n        return _name;\n    }\n\n    /**\n     * @dev Returns the symbol of the token, usually a shorter version of the\n     * name.\n     */\n    function symbol() public view returns (string memory) {\n        return _symbol;\n    }\n\n    /**\n     * @dev Returns the number of decimals used to get its user representation.\n     * For example, if `decimals` equals `2`, a balance of `505` tokens should\n     * be displayed to a user as `5,05` (`505 / 10 ** 2`).\n     *\n     * Tokens usually opt for a value of 18, imitating the relationship between\n     * Ether and Wei.\n     *\n     * > Note that this information is only used for _display_ purposes: it in\n     * no way affects any of the arithmetic of the contract, including\n     * `IERC20.balanceOf` and `IERC20.transfer`.\n     */\n    function decimals() public view returns (uint8) {\n        return _decimals;\n    }\n}\n\n\n/**\n * @dev Collection of functions related to the address type,\n */\nlibrary Address {\n    /**\n     * @dev Returns true if `account` is a contract.\n     *\n     * This test is non-exhaustive, and there may be false-negatives: during the\n     * execution of a contract's constructor, its address will be reported as\n     * not containing a contract.\n     *\n     * > It is unsafe to assume that an address for which this function returns\n     * false is an externally-owned account (EOA) and not a contract.\n     */\n    function isContract(address account) internal view returns (bool) {\n        // This method relies in extcodesize, which returns 0 for contracts in\n        // construction, since the code is only stored at the end of the\n        // constructor execution.\n\n        uint256 size;\n        // solhint-disable-next-line no-inline-assembly\n        assembly {size := extcodesize(account)}\n        return size > 0;\n    }\n}\n\n/**\n * @title SafeERC20\n * @dev Wrappers around ERC20 operations that throw on failure (when the token\n * contract returns false). Tokens that return no value (and instead revert or\n * throw on failure) are also supported, non-reverting calls are assumed to be\n * successful.\n * To use this library you can add a `using SafeERC20 for ERC20;` statement to your contract,\n * which allows you to call the safe operations as `token.safeTransfer(...)`, etc.\n */\nlibrary SafeERC20 {\n    using SafeMath for uint256;\n    using Address for address;\n\n    function safeTransfer(IERC20 token, address to, uint256 value) internal {\n        callOptionalReturn(token, abi.encodeWithSelector(token.transfer.selector, to, value));\n    }\n\n    function safeTransferFrom(IERC20 token, address from, address to, uint256 value) internal {\n        callOptionalReturn(token, abi.encodeWithSelector(token.transferFrom.selector, from, to, value));\n    }\n\n    function safeApprove(IERC20 token, address spender, uint256 value) internal {\n        // safeApprove should only be called when setting an initial allowance,\n        // or when resetting it to zero. To increase and decrease it, use\n        // 'safeIncreaseAllowance' and 'safeDecreaseAllowance'\n        // solhint-disable-next-line max-line-length\n        require((value == 0) || (token.allowance(address(this), spender) == 0),\n            \"SafeERC20: approve from non-zero to non-zero allowance\"\n        );\n        callOptionalReturn(token, abi.encodeWithSelector(token.approve.selector, spender, value));\n    }\n\n    function safeIncreaseAllowance(IERC20 token, address spender, uint256 value) internal {\n        uint256 newAllowance = token.allowance(address(this), spender).add(value);\n        callOptionalReturn(token, abi.encodeWithSelector(token.approve.selector, spender, newAllowance));\n    }\n\n    function safeDecreaseAllowance(IERC20 token, address spender, uint256 value) internal {\n        uint256 newAllowance = token.allowance(address(this), spender).sub(value);\n        callOptionalReturn(token, abi.encodeWithSelector(token.approve.selector, spender, newAllowance));\n    }\n\n    /**\n     * @dev Imitates a Solidity high-level call (i.e. a regular function call to a contract), relaxing the requirement\n     * on the return value: the return value is optional (but if data is returned, it must not be false).\n     * @param token The token targeted by the call.\n     * @param data The call data (encoded using abi.encode or one of its variants).\n     */\n    function callOptionalReturn(IERC20 token, bytes memory data) private {\n        // We need to perform a low level call here, to bypass Solidity's return data size checking mechanism, since\n        // we're implementing it ourselves.\n\n        // A Solidity high level call has three parts:\n        //  1. The target address is checked to verify it contains contract code\n        //  2. The call itself is made, and success asserted\n        //  3. The return value is decoded, which in turn checks the size of the returned data.\n        // solhint-disable-next-line max-line-length\n        require(address(token).isContract(), \"SafeERC20: call to non-contract\");\n\n        // solhint-disable-next-line avoid-low-level-calls\n        (bool success, bytes memory returndata) = address(token).call(data);\n        require(success, \"SafeERC20: low-level call failed\");\n\n        if (returndata.length > 0) {// Return data is optional\n            // solhint-disable-next-line max-line-length\n            require(abi.decode(returndata, (bool)), \"SafeERC20: ERC20 operation did not succeed\");\n        }\n    }\n}\n\n/**\n * @dev Contract module that helps prevent reentrant calls to a function.\n *\n * Inheriting from `ReentrancyGuard` will make the `nonReentrant` modifier\n * available, which can be aplied to functions to make sure there are no nested\n * (reentrant) calls to them.\n *\n * Note that because there is a single `nonReentrant` guard, functions marked as\n * `nonReentrant` may not call one another. This can be worked around by making\n * those functions `private`, and then adding `external` `nonReentrant` entry\n * points to them.\n */\ncontract ReentrancyGuard {\n    /// @dev counter to allow mutex lock with only one SSTORE operation\n    uint256 private _guardCounter;\n\n    constructor () internal {\n        // The counter starts at one to prevent changing it from zero to a non-zero\n        // value, which is a more expensive operation.\n        _guardCounter = 1;\n    }\n\n    /**\n     * @dev Prevents a contract from calling itself, directly or indirectly.\n     * Calling a `nonReentrant` function from another `nonReentrant`\n     * function is not supported. It is possible to prevent this from happening\n     * by making the `nonReentrant` function external, and make it call a\n     * `private` function that does the actual work.\n     */\n    modifier nonReentrant() {\n        _guardCounter += 1;\n        uint256 localCounter = _guardCounter;\n        _;\n        require(localCounter == _guardCounter, \"ReentrancyGuard: reentrant call\");\n    }\n}\n\n// Inheritancea\ninterface IStakingRewards {\n    // Views\n    function lastTimeRewardApplicable() external view returns (uint256);\n\n    function rewardPerToken() external view returns (uint256);\n\n    function earned(address account) external view returns (uint256);\n\n    function getRewardForDuration() external view returns (uint256);\n\n    function totalSupply() external view returns (uint256);\n\n    function balanceOf(address account) external view returns (uint256);\n\n    // Mutative\n\n    function stake(uint256 amount,address referrer) external;\n\n    function withdraw(uint256 amount) external;\n\n    function getReward() external;\n\n    function exit() external;\n}\n\n\n// File: @openzeppelin/contracts/GSN/Context.sol\n/*\n * @dev Provides information about the current execution context, including the\n * sender of the transaction and its data. While these are generally available\n * via msg.sender and msg.data, they should not be accessed in such a direct\n * manner, since when dealing with GSN meta-transactions the account sending and\n * paying for execution may not be the actual sender (as far as an application\n * is concerned).\n *\n * This contract is only required for intermediate, library-like contracts.\n */\ncontract Context {\n    // Empty internal constructor, to prevent people from mistakenly deploying\n    // an instance of this contract, which should be used via inheritance.\n    constructor () internal { }\n    // solhint-disable-previous-line no-empty-blocks\n\n    function _msgSender() internal view returns (address payable) {\n        return msg.sender;\n    }\n\n    function _msgData() internal view returns (bytes memory) {\n        this; // silence state mutability warning without generating bytecode - see https://github.com/ethereum/solidity/issues/2691\n        return msg.data;\n    }\n}\n\n// File: @openzeppelin/contracts/ownership/Ownable.sol\n/**\n * @dev Contract module which provides a basic access control mechanism, where\n * there is an account (an owner) that can be granted exclusive access to\n * specific functions.\n *\n * This module is used through inheritance. It will make available the modifier\n * `onlyOwner`, which can be applied to your functions to restrict their use to\n * the owner.\n */\ncontract Ownable is Context {\n    address private _owner;\n\n    event OwnershipTransferred(address indexed previousOwner, address indexed newOwner);\n\n    /**\n     * @dev Initializes the contract setting the deployer as the initial owner.\n     */\n    constructor () internal {\n        _owner = _msgSender();\n        emit OwnershipTransferred(address(0), _owner);\n    }\n\n    /**\n     * @dev Returns the address of the current owner.\n     */\n    function owner() public view returns (address) {\n        return _owner;\n    }\n\n    /**\n     * @dev Throws if called by any account other than the owner.\n     */\n    modifier onlyOwner() {\n        require(isOwner(), \"Ownable: caller is not the owner\");\n        _;\n    }\n\n    /**\n     * @dev Returns true if the caller is the current owner.\n     */\n    function isOwner() public view returns (bool) {\n        return _msgSender() == _owner;\n    }\n\n    /**\n     * @dev Leaves the contract without owner. It will not be possible to call\n     * `onlyOwner` functions anymore. Can only be called by the current owner.\n     *\n     * NOTE: Renouncing ownership will leave the contract without an owner,\n     * thereby removing any functionality that is only available to the owner.\n     */\n    function renounceOwnership() public onlyOwner {\n        emit OwnershipTransferred(_owner, address(0));\n        _owner = address(0);\n    }\n\n    /**\n     * @dev Transfers ownership of the contract to a new account (`newOwner`).\n     * Can only be called by the current owner.\n     */\n    function transferOwnership(address newOwner) public onlyOwner {\n        _transferOwnership(newOwner);\n    }\n\n    /**\n     * @dev Transfers ownership of the contract to a new account (`newOwner`).\n     */\n    function _transferOwnership(address newOwner) internal {\n        require(newOwner != address(0), \"Ownable: new owner is the zero address\");\n        emit OwnershipTransferred(_owner, newOwner);\n        _owner = newOwner;\n    }\n}\n\ncontract RewardsDistributionRecipient is Ownable {\n    address public rewardsDistribution;\n\n    function notifyRewardAmount(uint256 reward) external;\n\n    modifier onlyRewardsDistribution() {\n        require(msg.sender == rewardsDistribution, \"Caller is not RewardsDistribution contract\");\n        _;\n    }\n\n    function setRewardDistribution(address _rewardDistribution)\n        external\n        onlyOwner\n    {\n        rewardsDistribution = _rewardDistribution;\n    }\n}\n\ncontract StakingRewards is IStakingRewards, RewardsDistributionRecipient, ReentrancyGuard {\n    using SafeMath for uint256;\n    using SafeERC20 for IERC20;\n\n    /* ========== STATE VARIABLES ========== */\n\n    IERC20 public rewardsToken;\n    IERC20 public stakingToken;\n    uint256 public periodFinish = 0;\n    uint256 public rewardsDuration = 60 days;\n\n\n    // ------------------------------------------------------\n    // R1 rewards start\n    uint256 public rewardRate = 0;\n    uint256 public lastUpdateTime;\n    uint256 public rewardPerTokenStored;\n    mapping(address => uint256) public userRewardPerTokenPaid;\n    mapping(address => uint256) public rewards;\n\n    // R1 rewards end\n    // ------------------------------------------------------\n\n\n\n    // ------------------------------------------------------\n    // R2 rewards start\n    uint256 public rewardRateByWeight = 0;\n    uint256 public rewardPerWeightStored;\n    mapping(address => uint256) public userRewardPerWeightPaid;\n    mapping(address => uint256) public rewardsByWeight;\n\n    uint256 public totalWeight;\n    // R2 rewards end\n    // ------------------------------------------------------\n\n    mapping(address => address) public referrerMap;\n    mapping(address => uint256) public weight;\n\n    uint256 public lowWaterMark = 2000e18;\n    uint256 public highWaterMark = 3000e18;\n    uint256 public minStake = 20e18;\n    uint256 public maxLevel;\n    uint256 public r1Ratio = 50;\n    uint256 public freezeDuration = 10 minutes;\n\n    uint256 private _totalSupply;\n    mapping(address => uint256) private _balances;\n    mapping(address => uint256) public initialStakeTime;\n\n    /* ========== CONSTRUCTOR ========== */\n\n    constructor(\n        address _rewardsDistribution,\n        address _rewardsToken,\n        address _stakingToken,\n        uint256 _minStake,\n        uint256 _lowWaterMark,\n        uint256 _highWaterMark,\n        uint256 _maxLevel,\n        uint256 _freezeDuration\n    ) public {\n        rewardsToken = IERC20(_rewardsToken);\n        stakingToken = IERC20(_stakingToken);\n        rewardsDistribution = _rewardsDistribution;\n        minStake = _minStake;\n        lowWaterMark = _lowWaterMark;\n        highWaterMark = _highWaterMark;\n        maxLevel = _maxLevel;\n        if (_freezeDuration == 0) {\n            freezeDuration = 7 days;\n        } else {\n            freezeDuration = _freezeDuration;\n        }\n    }\n\n    /* ========== VIEWS ========== */\n\n    function totalSupply() external view returns (uint256) {\n        return _totalSupply;\n    }\n\n    function balanceOf(address account) external view returns (uint256) {\n        return _balances[account];\n    }\n\n    function lastTimeRewardApplicable() public view returns (uint256) {\n        return Math.min(block.timestamp, periodFinish);\n    }\n\n\n    // --------------------------------------------------------\n    // reward by token\n    function rewardPerToken() public view returns (uint256) {\n        if (_totalSupply == 0) {\n            return rewardPerTokenStored;\n        }\n        return\n        rewardPerTokenStored.add(\n            lastTimeRewardApplicable().sub(lastUpdateTime).mul(rewardRate).mul(1e18).div(_totalSupply)\n        );\n    }\n\n    function earned(address account) public view returns (uint256) {\n        return _balances[account].mul(rewardPerToken().sub(userRewardPerTokenPaid[account])).div(1e18).add(rewards[account]);\n    }\n\n    function getRewardForDuration() external view returns (uint256) {\n        return rewardRate.mul(rewardsDuration);\n    }\n    // reward by token\n    // --------------------------------------------------------\n\n\n    // ========================================================\n    // ========================================================\n\n\n    // --------------------------------------------------------\n    // reward by weight\n    function rewardPerWeight() public view returns (uint256) {\n        if (totalWeight == 0) {\n            return rewardPerWeightStored;\n        }\n        return rewardPerWeightStored.add(\n            lastTimeRewardApplicable().sub(lastUpdateTime).mul(rewardRateByWeight).mul(1e18).div(totalWeight)\n        );\n    }\n\n    function earnedByWeight(address account) public view returns (uint256) {\n        uint256 balance = _balances[account];\n        uint256 weightw = weight[account];\n\n        if (balance < minStake) {\n            return 0;\n        }\n\n        return weightw.mul(rewardPerWeight().sub(userRewardPerWeightPaid[account])).div(1e18).add(rewardsByWeight[account]);\n    }\n    function getWeightForDuration() external view returns (uint256) {\n        return rewardRateByWeight.mul(rewardsDuration);\n    }\n    // reward by weight\n    // --------------------------------------------------------\n\n\n\n    /* ========== MUTATIVE FUNCTIONS ========== */\n\n    // 1. stake: balance is total staked before stake. amount is the number you stake.\n    // 2. withdraw: balance is total staked after withdraw. amount is the number you withdraw.\n    function getDeltaWeight(uint256 balance, uint256 amount) public view returns (uint256) {\n        uint256 deltaWeight = 0;\n        uint256 min = lowWaterMark;\n        uint256 max = highWaterMark;\n        uint256 total = balance + amount;\n\n        if (balance > min) {\n            if (balance > max) {\n                deltaWeight = 0;\n            } else {\n                if (total >= max) {\n                    deltaWeight = max - balance;\n                } else {\n                    deltaWeight = amount;\n                }\n            }\n        } else if (balance <= min) {\n            if (total >= max) {\n                deltaWeight = max;\n            } else {\n                deltaWeight = balance + amount;\n            }\n            if (balance == min) {\n                deltaWeight = deltaWeight - balance;\n            }\n        }\n\n        return deltaWeight;\n    }\n\n    function onStake(address account, uint256 balanceBeforeStake, uint256 amount) internal{\n        if (balanceBeforeStake < minStake && (balanceBeforeStake + amount) >= minStake)  {\n            totalWeight = totalWeight.add(weight[account]);\n        }\n    }\n\n    function setReferrer(address account, address referrer) internal returns (address) {\n        uint256 balance = _balances[account];\n        uint256 weightAcc = weight[account];\n        address existingReferrer = referrerMap[account];\n\n        if (balance == 0 && weightAcc == 0 && existingReferrer == address(0)) {\n            if (initialStakeTime[referrer] > 0 && referrerMap[referrer] != account) {\n                referrerMap[account] = referrer;\n                existingReferrer = referrer;\n            }\n        }\n\n        return existingReferrer;\n    }\n\n    function stake(uint256 amount, address ref) external nonReentrant updateReward(msg.sender) {\n        require(amount > 0, \"Cannot stake 0\");\n        uint256 beforeStake = _balances[msg.sender];\n\n        address referrer = setReferrer(msg.sender, ref);\n\n        if (referrer != address(0)) {\n            uint256 deltaWeight = getDeltaWeight(_balances[msg.sender], amount);\n            if (deltaWeight > 0) {\n                for (uint24 i = 0; i < maxLevel; i++) {\n                    weight[referrer] = weight[referrer].add(deltaWeight);\n                    if (_balances[referrer] >= minStake) {\n                        totalWeight = totalWeight.add(deltaWeight);\n                    }\n\n                    referrer = referrerMap[referrer];\n                    if (referrer == address(0)) {\n                        break;\n                    }\n                }\n            }\n        }\n\n        // update totalWeight base on my min stake\n        onStake(msg.sender, beforeStake, amount);\n\n        _totalSupply = _totalSupply.add(amount);\n        _balances[msg.sender] = _balances[msg.sender].add(amount);\n        stakingToken.safeTransferFrom(msg.sender, address(this), amount);\n        if (initialStakeTime[msg.sender] == 0) {\n            initialStakeTime[msg.sender] = block.timestamp;\n        }\n        emit Staked(msg.sender, amount);\n    }\n\n\n    function onWithdraw(address account, uint256 balanceAfterWithdraw, uint256 amount) internal{\n        if (balanceAfterWithdraw < minStake && (balanceAfterWithdraw + amount) >= minStake)  {\n            totalWeight = totalWeight.sub(weight[account]);\n            require(totalWeight >= 0, \"onWithdraw: invalid delta weight\");\n        }\n    }\n    \n    function withdraw(uint256 amount) public nonReentrant updateReward(msg.sender) {\n        require(amount > 0, \"Cannot withdraw 0\");\n        require(initialStakeTime[msg.sender] + freezeDuration > block.timestamp,\"Freezed, cannot withdraw\");\n        uint256 afterWithdraw = _balances[msg.sender].sub(amount);\n        require(afterWithdraw >= 0, \"Cannot withdraw more than you have\");\n\n        address referrer = referrerMap[msg.sender];\n        if (referrer != address(0)) {\n            uint256 deltaWeight = getDeltaWeight(afterWithdraw, amount);\n            if (deltaWeight > 0) {\n                for (uint24 i = 0; i < maxLevel; i++) {\n                    weight[referrer] = weight[referrer].sub(deltaWeight);\n                    require(weight[referrer] >= 0, \"Invalid delta weight\");\n\n                    if (_balances[referrer] >= minStake) {\n                        totalWeight = totalWeight.sub(deltaWeight);\n                        require(totalWeight >= 0, \"Invalid totalWeight and delta weight\");\n                    }\n\n                    referrer = referrerMap[referrer];\n                    if (referrer == address(0)) {\n                        break;\n                    }\n                }\n            }\n        }\n\n        // update totalWeight base on my min stake\n        onWithdraw(msg.sender, afterWithdraw, amount);\n\n        _totalSupply = _totalSupply.sub(amount);\n        _balances[msg.sender] = _balances[msg.sender].sub(amount);\n        stakingToken.safeTransfer(msg.sender, amount);\n        emit Withdrawn(msg.sender, amount);\n    }\n\n    \n    \n    function getReward() public nonReentrant updateReward(msg.sender) {\n        uint256 reward = rewards[msg.sender];\n        if (reward > 0) {\n            rewards[msg.sender] = 0;\n            rewardsToken.safeTransfer(msg.sender, reward);\n            emit RewardPaid(msg.sender, reward);\n        }\n\n    }\n    \n    function getRewardWeight() public nonReentrant updateReward(msg.sender) {\n        uint256 rewardw = rewardsByWeight[msg.sender];\n        if (rewardw > 0) {\n            rewardsByWeight[msg.sender] = 0;\n            rewardsToken.safeTransfer(msg.sender, rewardw);\n            emit RewardPaid(msg.sender, rewardw);\n        }\n    }\n    \n    function getRewardAll() public nonReentrant updateReward(msg.sender) {\n        getReward();\n        getRewardWeight();\n    }\n\n    function exit() external {\n        withdraw(_balances[msg.sender]);\n        getRewardAll();\n    }\n\n    /* ========== RESTRICTED FUNCTIONS ========== */\n\n    function notifyRewardAmount(uint256 reward) external onlyRewardsDistribution updateReward(address(0)) {\n        require(r1Ratio <= 100 && r1Ratio >= 0, \"Invalid ratio\");\n\n        uint256 reward4Token = reward.mul(r1Ratio).div(100);\n        uint256 reward4Weight = reward.sub(reward4Token);\n\n        if (block.timestamp >= periodFinish) {\n            rewardRate = reward4Token.div(rewardsDuration);\n            rewardRateByWeight = reward4Weight.div(rewardsDuration);\n        } else {\n            uint256 remaining = periodFinish.sub(block.timestamp);\n            uint256 leftover = remaining.mul(rewardRate);\n            rewardRate = reward4Token.add(leftover).div(rewardsDuration);\n\n            uint256 leftover4Weight = remaining.mul(rewardRateByWeight);\n            rewardRateByWeight = reward4Weight.add(leftover4Weight).div(rewardsDuration);\n        }\n\n        rewardsToken.mint(address(this), reward);\n        // Ensure the provided reward amount is not more than the balance in the contract.\n        // This keeps the reward rate in the right range, preventing overflows due to\n        // very high values of rewardRate in the earned and rewardsPerToken functions;\n        // Reward + leftover must be less than 2^256 / 10^18 to avoid overflow.\n        uint balance = rewardsToken.balanceOf(address(this));\n        require(rewardRate.add(rewardRateByWeight) <= balance.div(rewardsDuration), \"Provided reward too high\");\n\n        lastUpdateTime = block.timestamp;\n        periodFinish = block.timestamp.add(rewardsDuration);\n        emit RewardAdded(reward);\n    }\n\n    /* ========== MODIFIERS ========== */\n\n    modifier updateReward(address account) {\n        rewardPerTokenStored = rewardPerToken();\n        rewardPerWeightStored = rewardPerWeight();\n        lastUpdateTime = lastTimeRewardApplicable();\n        if (account != address(0)) {\n            rewards[account] = earned(account);\n            userRewardPerTokenPaid[account] = rewardPerTokenStored;\n\n            rewardsByWeight[account] = earnedByWeight(account);\n            userRewardPerWeightPaid[account] = rewardPerWeightStored;\n        }\n        _;\n    }\n\n    /* ========== EVENTS ========== */\n\n    event RewardAdded(uint256 reward);\n    event Staked(address indexed user, uint256 amount);\n    event Withdrawn(address indexed user, uint256 amount);\n    event RewardPaid(address indexed user, uint256 reward);\n    \n}",
  "sourcePath": "/Users/oker/Desktop/compile/contracts/zzlPool.sol",
  "compiler": {
    "name": "solc",
    "version": "0.5.17+commit.d19bba13.Emscripten.clang"
  },
  "schemaVersion": "3.2.3",
  "updatedAt": "2021-02-07T13:23:37.714Z",
  "devdoc": {
    "methods": {
      "isOwner()": {
        "details": "Returns true if the caller is the current owner."
      },
      "owner()": {
        "details": "Returns the address of the current owner."
      },
      "renounceOwnership()": {
        "details": "Leaves the contract without owner. It will not be possible to call `onlyOwner` functions anymore. Can only be called by the current owner.     * NOTE: Renouncing ownership will leave the contract without an owner, thereby removing any functionality that is only available to the owner."
      },
      "transferOwnership(address)": {
        "details": "Transfers ownership of the contract to a new account (`newOwner`). Can only be called by the current owner."
      }
    }
  },
  "userdoc": {
    "methods": {}
  }
}