{
  "contractName": "Token",
  "abi": [
    {
      "inputs": [],
      "payable": false,
      "stateMutability": "nonpayable",
      "type": "constructor"
    },
    {
      "anonymous": false,
      "inputs": [
        {
          "indexed": true,
          "internalType": "address",
          "name": "owner",
          "type": "address"
        },
        {
          "indexed": true,
          "internalType": "address",
          "name": "spender",
          "type": "address"
        },
        {
          "indexed": false,
          "internalType": "uint256",
          "name": "value",
          "type": "uint256"
        }
      ],
      "name": "Approval",
      "type": "event"
    },
    {
      "anonymous": false,
      "inputs": [
        {
          "indexed": false,
          "internalType": "address",
          "name": "oldGov",
          "type": "address"
        },
        {
          "indexed": false,
          "internalType": "address",
          "name": "newGov",
          "type": "address"
        }
      ],
      "name": "NewGov",
      "type": "event"
    },
    {
      "anonymous": false,
      "inputs": [
        {
          "indexed": false,
          "internalType": "address",
          "name": "oldPendingGov",
          "type": "address"
        },
        {
          "indexed": false,
          "internalType": "address",
          "name": "newPendingGov",
          "type": "address"
        }
      ],
      "name": "NewPendingGov",
      "type": "event"
    },
    {
      "anonymous": false,
      "inputs": [
        {
          "indexed": true,
          "internalType": "address",
          "name": "from",
          "type": "address"
        },
        {
          "indexed": true,
          "internalType": "address",
          "name": "to",
          "type": "address"
        },
        {
          "indexed": false,
          "internalType": "uint256",
          "name": "value",
          "type": "uint256"
        }
      ],
      "name": "Transfer",
      "type": "event"
    },
    {
      "constant": true,
      "inputs": [
        {
          "internalType": "address",
          "name": "owner",
          "type": "address"
        },
        {
          "internalType": "address",
          "name": "spender",
          "type": "address"
        }
      ],
      "name": "allowance",
      "outputs": [
        {
          "internalType": "uint256",
          "name": "",
          "type": "uint256"
        }
      ],
      "payable": false,
      "stateMutability": "view",
      "type": "function"
    },
    {
      "constant": false,
      "inputs": [
        {
          "internalType": "address",
          "name": "spender",
          "type": "address"
        },
        {
          "internalType": "uint256",
          "name": "amount",
          "type": "uint256"
        }
      ],
      "name": "approve",
      "outputs": [
        {
          "internalType": "bool",
          "name": "",
          "type": "bool"
        }
      ],
      "payable": false,
      "stateMutability": "nonpayable",
      "type": "function"
    },
    {
      "constant": true,
      "inputs": [
        {
          "internalType": "address",
          "name": "account",
          "type": "address"
        }
      ],
      "name": "balanceOf",
      "outputs": [
        {
          "internalType": "uint256",
          "name": "",
          "type": "uint256"
        }
      ],
      "payable": false,
      "stateMutability": "view",
      "type": "function"
    },
    {
      "constant": true,
      "inputs": [],
      "name": "cap",
      "outputs": [
        {
          "internalType": "uint256",
          "name": "",
          "type": "uint256"
        }
      ],
      "payable": false,
      "stateMutability": "view",
      "type": "function"
    },
    {
      "constant": true,
      "inputs": [],
      "name": "decimals",
      "outputs": [
        {
          "internalType": "uint8",
          "name": "",
          "type": "uint8"
        }
      ],
      "payable": false,
      "stateMutability": "view",
      "type": "function"
    },
    {
      "constant": false,
      "inputs": [
        {
          "internalType": "address",
          "name": "spender",
          "type": "address"
        },
        {
          "internalType": "uint256",
          "name": "subtractedValue",
          "type": "uint256"
        }
      ],
      "name": "decreaseAllowance",
      "outputs": [
        {
          "internalType": "bool",
          "name": "",
          "type": "bool"
        }
      ],
      "payable": false,
      "stateMutability": "nonpayable",
      "type": "function"
    },
    {
      "constant": true,
      "inputs": [],
      "name": "governance",
      "outputs": [
        {
          "internalType": "address",
          "name": "",
          "type": "address"
        }
      ],
      "payable": false,
      "stateMutability": "view",
      "type": "function"
    },
    {
      "constant": false,
      "inputs": [
        {
          "internalType": "address",
          "name": "spender",
          "type": "address"
        },
        {
          "internalType": "uint256",
          "name": "addedValue",
          "type": "uint256"
        }
      ],
      "name": "increaseAllowance",
      "outputs": [
        {
          "internalType": "bool",
          "name": "",
          "type": "bool"
        }
      ],
      "payable": false,
      "stateMutability": "nonpayable",
      "type": "function"
    },
    {
      "constant": true,
      "inputs": [
        {
          "internalType": "address",
          "name": "",
          "type": "address"
        }
      ],
      "name": "minters",
      "outputs": [
        {
          "internalType": "bool",
          "name": "",
          "type": "bool"
        }
      ],
      "payable": false,
      "stateMutability": "view",
      "type": "function"
    },
    {
      "constant": true,
      "inputs": [],
      "name": "name",
      "outputs": [
        {
          "internalType": "string",
          "name": "",
          "type": "string"
        }
      ],
      "payable": false,
      "stateMutability": "view",
      "type": "function"
    },
    {
      "constant": true,
      "inputs": [],
      "name": "pendingGov",
      "outputs": [
        {
          "internalType": "address",
          "name": "",
          "type": "address"
        }
      ],
      "payable": false,
      "stateMutability": "view",
      "type": "function"
    },
    {
      "constant": true,
      "inputs": [],
      "name": "symbol",
      "outputs": [
        {
          "internalType": "string",
          "name": "",
          "type": "string"
        }
      ],
      "payable": false,
      "stateMutability": "view",
      "type": "function"
    },
    {
      "constant": true,
      "inputs": [],
      "name": "totalSupply",
      "outputs": [
        {
          "internalType": "uint256",
          "name": "",
          "type": "uint256"
        }
      ],
      "payable": false,
      "stateMutability": "view",
      "type": "function"
    },
    {
      "constant": false,
      "inputs": [
        {
          "internalType": "address",
          "name": "recipient",
          "type": "address"
        },
        {
          "internalType": "uint256",
          "name": "amount",
          "type": "uint256"
        }
      ],
      "name": "transfer",
      "outputs": [
        {
          "internalType": "bool",
          "name": "",
          "type": "bool"
        }
      ],
      "payable": false,
      "stateMutability": "nonpayable",
      "type": "function"
    },
    {
      "constant": false,
      "inputs": [
        {
          "internalType": "address",
          "name": "sender",
          "type": "address"
        },
        {
          "internalType": "address",
          "name": "recipient",
          "type": "address"
        },
        {
          "internalType": "uint256",
          "name": "amount",
          "type": "uint256"
        }
      ],
      "name": "transferFrom",
      "outputs": [
        {
          "internalType": "bool",
          "name": "",
          "type": "bool"
        }
      ],
      "payable": false,
      "stateMutability": "nonpayable",
      "type": "function"
    },
    {
      "constant": false,
      "inputs": [
        {
          "internalType": "address",
          "name": "_account",
          "type": "address"
        },
        {
          "internalType": "uint256",
          "name": "_amount",
          "type": "uint256"
        }
      ],
      "name": "mint",
      "outputs": [],
      "payable": false,
      "stateMutability": "nonpayable",
      "type": "function"
    },
    {
      "constant": false,
      "inputs": [
        {
          "internalType": "address",
          "name": "_minter",
          "type": "address"
        }
      ],
      "name": "addMinter",
      "outputs": [],
      "payable": false,
      "stateMutability": "nonpayable",
      "type": "function"
    },
    {
      "constant": false,
      "inputs": [
        {
          "internalType": "address",
          "name": "_minter",
          "type": "address"
        }
      ],
      "name": "removeMinter",
      "outputs": [],
      "payable": false,
      "stateMutability": "nonpayable",
      "type": "function"
    },
    {
      "constant": false,
      "inputs": [
        {
          "internalType": "address",
          "name": "_pendingGov",
          "type": "address"
        }
      ],
      "name": "setPendingGov",
      "outputs": [],
      "payable": false,
      "stateMutability": "nonpayable",
      "type": "function"
    },
    {
      "constant": false,
      "inputs": [],
      "name": "acceptGov",
      "outputs": [],
      "payable": false,
      "stateMutability": "nonpayable",
      "type": "function"
    }
  ],
  "bytecode": "0x608060405234801561001057600080fd5b50604080518082018252600b81526a4855422e66696e616e636560a81b602080830191825283518085019094526002845261121160f21b9084015281519192916012916a115eec47f6cf7e350000009161006c916003916100b3565b5082516100809060049060208601906100b3565b506005805460ff90931660ff19909316929092179091556006555050600780546001600160a01b0319163217905561014e565b828054600181600116156101000203166002900490600052602060002090601f016020900481019282601f106100f457805160ff1916838001178555610121565b82800160010185558215610121579182015b82811115610121578251825591602001919060010190610106565b5061012d929150610131565b5090565b61014b91905b8082111561012d5760008155600101610137565b90565b61102f806200015e6000396000f3fe608060405234801561001057600080fd5b506004361061012c5760003560e01c80635aa6e675116100ad578063a457c2d711610071578063a457c2d71461036c578063a9059cbb14610398578063dd62ed3e146103c4578063efdf0bb0146103f2578063f46eccc4146104185761012c565b80635aa6e6751461030857806370a08231146103105780637bc6729b1461033657806395d89b411461033e578063983b2d56146103465761012c565b80633092afd5116100f45780633092afd514610262578063313ce5671461028a578063355274ea146102a857806339509351146102b057806340c10f19146102dc5761012c565b806306fdde0314610131578063095ea7b3146101ae57806318160ddd146101ee57806323b872dd14610208578063252408101461023e575b600080fd5b61013961043e565b6040805160208082528351818301528351919283929083019185019080838360005b8381101561017357818101518382015260200161015b565b50505050905090810190601f1680156101a05780820380516001836020036101000a031916815260200191505b509250505060405180910390f35b6101da600480360360408110156101c457600080fd5b506001600160a01b0381351690602001356104d4565b604080519115158252519081900360200190f35b6101f66104f1565b60408051918252519081900360200190f35b6101da6004803603606081101561021e57600080fd5b506001600160a01b038135811691602081013590911690604001356104f7565b610246610584565b604080516001600160a01b039092168252519081900360200190f35b6102886004803603602081101561027857600080fd5b50356001600160a01b0316610593565b005b61029261060c565b6040805160ff9092168252519081900360200190f35b6101f6610615565b6101da600480360360408110156102c657600080fd5b506001600160a01b03813516906020013561061b565b610288600480360360408110156102f257600080fd5b506001600160a01b03813516906020013561066f565b6102466106d6565b6101f66004803603602081101561032657600080fd5b50356001600160a01b03166106e5565b610288610700565b6101396107c3565b6102886004803603602081101561035c57600080fd5b50356001600160a01b0316610824565b6101da6004803603604081101561038257600080fd5b506001600160a01b0381351690602001356108a0565b6101da600480360360408110156103ae57600080fd5b506001600160a01b03813516906020013561090e565b6101f6600480360360408110156103da57600080fd5b506001600160a01b0381358116916020013516610922565b6102886004803603602081101561040857600080fd5b50356001600160a01b031661094d565b6101da6004803603602081101561042e57600080fd5b50356001600160a01b0316610a08565b60038054604080516020601f60026000196101006001881615020190951694909404938401819004810282018101909252828152606093909290918301828280156104ca5780601f1061049f576101008083540402835291602001916104ca565b820191906000526020600020905b8154815290600101906020018083116104ad57829003601f168201915b5050505050905090565b60006104e86104e1610a1d565b8484610a21565b50600192915050565b60025490565b6000610504848484610b0d565b61057a84610510610a1d565b61057585604051806060016040528060288152602001610f65602891396001600160a01b038a1660009081526001602052604081209061054e610a1d565b6001600160a01b03168152602081019190915260400160002054919063ffffffff610c7416565b610a21565b5060019392505050565b6008546001600160a01b031681565b6007546001600160a01b031633146105eb576040805162461bcd60e51b81526020600482015260166024820152754855422d546f6b656e3a2021676f7665726e616e636560501b604482015290519081900360640190fd5b6001600160a01b03166000908152600960205260409020805460ff19169055565b60055460ff1690565b60065490565b60006104e8610628610a1d565b846105758560016000610639610a1d565b6001600160a01b03908116825260208083019390935260409182016000908120918c16815292529020549063ffffffff610d0b16565b3360009081526009602052604090205460ff166106c8576040805162461bcd60e51b8152602060048201526012602482015271242aa116aa37b5b2b71d1010b6b4b73a32b960711b604482015290519081900360640190fd5b6106d28282610d6c565b5050565b6007546001600160a01b031681565b6001600160a01b031660009081526020819052604090205490565b6008546001600160a01b03163314610755576040805162461bcd60e51b81526020600482015260136024820152724855422d546f6b656e3a202170656e64696e6760681b604482015290519081900360640190fd5b60078054600880546001600160a01b03198084166001600160a01b03838116919091179586905591169091556040805192821680845293909116602083015280517f1f14cfc03e486d23acee577b07bc0b3b23f4888c91fcdba5e0fef5a2549d55239281900390910190a150565b60048054604080516020601f60026000196101006001881615020190951694909404938401819004810282018101909252828152606093909290918301828280156104ca5780601f1061049f576101008083540402835291602001916104ca565b6007546001600160a01b0316331461087c576040805162461bcd60e51b81526020600482015260166024820152754855422d546f6b656e3a2021676f7665726e616e636560501b604482015290519081900360640190fd5b6001600160a01b03166000908152600960205260409020805460ff19166001179055565b60006104e86108ad610a1d565b8461057585604051806060016040528060258152602001610fd660259139600160006108d7610a1d565b6001600160a01b03908116825260208083019390935260409182016000908120918d1681529252902054919063ffffffff610c7416565b60006104e861091b610a1d565b8484610b0d565b6001600160a01b03918216600090815260016020908152604080832093909416825291909152205490565b6007546001600160a01b031633146109a5576040805162461bcd60e51b81526020600482015260166024820152754855422d546f6b656e3a2021676f7665726e616e636560501b604482015290519081900360640190fd5b600880546001600160a01b038381166001600160a01b0319831681179093556040805191909216808252602082019390935281517f6163d5b9efd962645dd649e6e48a61bcb0f9df00997a2398b80d135a9ab0c61e929181900390910190a15050565b60096020526000908152604090205460ff1681565b3390565b6001600160a01b038316610a665760405162461bcd60e51b8152600401808060200182810382526024815260200180610fb26024913960400191505060405180910390fd5b6001600160a01b038216610aab5760405162461bcd60e51b8152600401808060200182810382526022815260200180610f1d6022913960400191505060405180910390fd5b6001600160a01b03808416600081815260016020908152604080832094871680845294825291829020859055815185815291517f8c5be1e5ebec7d5bd14f71427d1e84f3dd0314c0f7b2291e5b200ac8c7c3b9259281900390910190a3505050565b6001600160a01b038316610b525760405162461bcd60e51b8152600401808060200182810382526025815260200180610f8d6025913960400191505060405180910390fd5b6001600160a01b038216610b975760405162461bcd60e51b8152600401808060200182810382526023815260200180610efa6023913960400191505060405180910390fd5b610ba2838383610e68565b610be581604051806060016040528060268152602001610f3f602691396001600160a01b038616600090815260208190526040902054919063ffffffff610c7416565b6001600160a01b038085166000908152602081905260408082209390935590841681522054610c1a908263ffffffff610d0b16565b6001600160a01b038084166000818152602081815260409182902094909455805185815290519193928716927fddf252ad1be2c89b69c2b068fc378daa952ba7f163c4a11628f55a4df523b3ef92918290030190a3505050565b60008184841115610d035760405162461bcd60e51b81526004018080602001828103825283818151815260200191508051906020019080838360005b83811015610cc8578181015183820152602001610cb0565b50505050905090810190601f168015610cf55780820380516001836020036101000a031916815260200191505b509250505060405180910390fd5b505050900390565b600082820183811015610d65576040805162461bcd60e51b815260206004820152601b60248201527f536166654d6174683a206164646974696f6e206f766572666c6f770000000000604482015290519081900360640190fd5b9392505050565b6001600160a01b038216610dc7576040805162461bcd60e51b815260206004820152601f60248201527f45524332303a206d696e7420746f20746865207a65726f206164647265737300604482015290519081900360640190fd5b610dd360008383610e68565b600254610de6908263ffffffff610d0b16565b6002556001600160a01b038216600090815260208190526040902054610e12908263ffffffff610d0b16565b6001600160a01b0383166000818152602081815260408083209490945583518581529351929391927fddf252ad1be2c89b69c2b068fc378daa952ba7f163c4a11628f55a4df523b3ef9281900390910190a35050565b610e73838383610ef4565b6001600160a01b038316610ef457610e89610615565b610ea182610e956104f1565b9063ffffffff610d0b16565b1115610ef4576040805162461bcd60e51b815260206004820152601760248201527f4855422d546f6b656e3a20436170206578636565646564000000000000000000604482015290519081900360640190fd5b50505056fe45524332303a207472616e7366657220746f20746865207a65726f206164647265737345524332303a20617070726f766520746f20746865207a65726f206164647265737345524332303a207472616e7366657220616d6f756e7420657863656564732062616c616e636545524332303a207472616e7366657220616d6f756e74206578636565647320616c6c6f77616e636545524332303a207472616e736665722066726f6d20746865207a65726f206164647265737345524332303a20617070726f76652066726f6d20746865207a65726f206164647265737345524332303a2064656372656173656420616c6c6f77616e63652062656c6f77207a65726fa265627a7a7231582026ae061a7375a079d266fc49c18efb6bb7c08231b5cc421060e91217487af5ac64736f6c63430005110032",
  "source": "/**\n *Submitted for verification at Etherscan.io on 2020-09-22\n*/\n\npragma solidity ^0.5.16;\n\ninterface IERC20 {\n    function totalSupply() external view returns (uint);\n    function balanceOf(address account) external view returns (uint);\n    function transfer(address recipient, uint amount) external returns (bool);\n    function allowance(address owner, address spender) external view returns (uint);\n    function approve(address spender, uint amount) external returns (bool);\n    function transferFrom(address sender, address recipient, uint amount) external returns (bool);\n    event Transfer(address indexed from, address indexed to, uint value);\n    event Approval(address indexed owner, address indexed spender, uint value);\n}\n\ncontract Context {\n    constructor () internal { }\n    // solhint-disable-previous-line no-empty-blocks\n\n    function _msgSender() internal view returns (address payable) {\n        return msg.sender;\n    }\n}\n\ncontract ERC20 is Context, IERC20 {\n    using SafeMath for uint;\n\n    mapping (address => uint) private _balances;\n\n    mapping (address => mapping (address => uint)) private _allowances;\n\n    uint private _totalSupply;\n    function totalSupply() public view returns (uint) {\n        return _totalSupply;\n    }\n    function balanceOf(address account) public view returns (uint) {\n        return _balances[account];\n    }\n    function transfer(address recipient, uint amount) public returns (bool) {\n        _transfer(_msgSender(), recipient, amount);\n        return true;\n    }\n    function allowance(address owner, address spender) public view returns (uint) {\n        return _allowances[owner][spender];\n    }\n    function approve(address spender, uint amount) public returns (bool) {\n        _approve(_msgSender(), spender, amount);\n        return true;\n    }\n    function transferFrom(address sender, address recipient, uint amount) public returns (bool) {\n        _transfer(sender, recipient, amount);\n        _approve(sender, _msgSender(), _allowances[sender][_msgSender()].sub(amount, \"ERC20: transfer amount exceeds allowance\"));\n        return true;\n    }\n    function increaseAllowance(address spender, uint addedValue) public returns (bool) {\n        _approve(_msgSender(), spender, _allowances[_msgSender()][spender].add(addedValue));\n        return true;\n    }\n    function decreaseAllowance(address spender, uint subtractedValue) public returns (bool) {\n        _approve(_msgSender(), spender, _allowances[_msgSender()][spender].sub(subtractedValue, \"ERC20: decreased allowance below zero\"));\n        return true;\n    }\n    function _transfer(address sender, address recipient, uint amount) internal {\n        require(sender != address(0), \"ERC20: transfer from the zero address\");\n        require(recipient != address(0), \"ERC20: transfer to the zero address\");\n\n        _beforeTokenTransfer(sender, recipient, amount);\n\n        _balances[sender] = _balances[sender].sub(amount, \"ERC20: transfer amount exceeds balance\");\n        _balances[recipient] = _balances[recipient].add(amount);\n        emit Transfer(sender, recipient, amount);\n    }\n    function _mint(address account, uint amount) internal {\n        require(account != address(0), \"ERC20: mint to the zero address\");\n\n        _beforeTokenTransfer(address(0), account, amount);\n\n        _totalSupply = _totalSupply.add(amount);\n        _balances[account] = _balances[account].add(amount);\n        emit Transfer(address(0), account, amount);\n    }\n    function _burn(address account, uint amount) internal {\n        require(account != address(0), \"ERC20: burn from the zero address\");\n\n        _beforeTokenTransfer(account, address(0), amount);\n\n        _balances[account] = _balances[account].sub(amount, \"ERC20: burn amount exceeds balance\");\n        _totalSupply = _totalSupply.sub(amount);\n        emit Transfer(account, address(0), amount);\n    }\n    function _approve(address owner, address spender, uint amount) internal {\n        require(owner != address(0), \"ERC20: approve from the zero address\");\n        require(spender != address(0), \"ERC20: approve to the zero address\");\n\n        _allowances[owner][spender] = amount;\n        emit Approval(owner, spender, amount);\n    }\n\n     /**\n     * @dev Hook that is called before any transfer of tokens. This includes\n     * minting and burning.\n     *\n     * Calling conditions:\n     *\n     * - when `from` and `to` are both non-zero, `amount` of ``from``'s tokens\n     * will be to transferred to `to`.\n     * - when `from` is zero, `amount` tokens will be minted for `to`.\n     * - when `to` is zero, `amount` of ``from``'s tokens will be burned.\n     * - `from` and `to` are never both zero.\n     *\n     * To learn more about hooks, head to xref:ROOT:extending-contracts.adoc#using-hooks[Using Hooks].\n     */\n    function _beforeTokenTransfer(address from, address to, uint256 amount) internal { }\n}\n\ncontract ERC20Detailed is IERC20 {\n    string private _name;\n    string private _symbol;\n    uint8 private _decimals;\n    uint256 private _cap;\n\n    constructor (string memory name, string memory symbol, uint8 decimals, uint256 cap) public {\n        _name = name;\n        _symbol = symbol;\n        _decimals = decimals;\n        _cap = cap;\n    }\n    function name() public view returns (string memory) {\n        return _name;\n    }\n    function symbol() public view returns (string memory) {\n        return _symbol;\n    }\n    function decimals() public view returns (uint8) {\n        return _decimals;\n    }\n\n    /**\n     * @dev Returns the cap on the token's total supply.\n     */\n    function cap() public view returns (uint256) {\n        return _cap;\n    }\n\n}\n\nlibrary SafeMath {\n    function add(uint a, uint b) internal pure returns (uint) {\n        uint c = a + b;\n        require(c >= a, \"SafeMath: addition overflow\");\n\n        return c;\n    }\n    function sub(uint a, uint b) internal pure returns (uint) {\n        return sub(a, b, \"SafeMath: subtraction overflow\");\n    }\n    function sub(uint a, uint b, string memory errorMessage) internal pure returns (uint) {\n        require(b <= a, errorMessage);\n        uint c = a - b;\n\n        return c;\n    }\n    function mul(uint a, uint b) internal pure returns (uint) {\n        if (a == 0) {\n            return 0;\n        }\n\n        uint c = a * b;\n        require(c / a == b, \"SafeMath: multiplication overflow\");\n\n        return c;\n    }\n    function div(uint a, uint b) internal pure returns (uint) {\n        return div(a, b, \"SafeMath: division by zero\");\n    }\n    function div(uint a, uint b, string memory errorMessage) internal pure returns (uint) {\n        // Solidity only automatically asserts when dividing by 0\n        require(b > 0, errorMessage);\n        uint c = a / b;\n\n        return c;\n    }\n}\n\nlibrary Address {\n    function isContract(address account) internal view returns (bool) {\n        bytes32 codehash;\n        bytes32 accountHash = 0xc5d2460186f7233c927e7db2dcc703c0e500b653ca82273b7bfad8045d85a470;\n        // solhint-disable-next-line no-inline-assembly\n        assembly { codehash := extcodehash(account) }\n        return (codehash != 0x0 && codehash != accountHash);\n    }\n}\n\nlibrary SafeERC20 {\n    using SafeMath for uint;\n    using Address for address;\n\n    function safeTransfer(IERC20 token, address to, uint value) internal {\n        callOptionalReturn(token, abi.encodeWithSelector(token.transfer.selector, to, value));\n    }\n\n    function safeTransferFrom(IERC20 token, address from, address to, uint value) internal {\n        callOptionalReturn(token, abi.encodeWithSelector(token.transferFrom.selector, from, to, value));\n    }\n\n    function safeApprove(IERC20 token, address spender, uint value) internal {\n        require((value == 0) || (token.allowance(address(this), spender) == 0),\n            \"SafeERC20: approve from non-zero to non-zero allowance\"\n        );\n        callOptionalReturn(token, abi.encodeWithSelector(token.approve.selector, spender, value));\n    }\n    function callOptionalReturn(IERC20 token, bytes memory data) private {\n        require(address(token).isContract(), \"SafeERC20: call to non-contract\");\n\n        // solhint-disable-next-line avoid-low-level-calls\n        (bool success, bytes memory returndata) = address(token).call(data);\n        require(success, \"SafeERC20: low-level call failed\");\n\n        if (returndata.length > 0) { // Return data is optional\n            // solhint-disable-next-line max-line-length\n            require(abi.decode(returndata, (bool)), \"SafeERC20: ERC20 operation did not succeed\");\n        }\n    }\n}\n\n/**\n * HD Token\n */\ncontract Token is ERC20, ERC20Detailed {\n    using SafeERC20 for IERC20;\n    using Address for address;\n    using SafeMath for uint;\n\n    address public governance;\n    address public pendingGov;\n\n    mapping (address => bool) public minters;\n\n    event NewPendingGov(address oldPendingGov, address newPendingGov);\n\n    event NewGov(address oldGov, address newGov);\n\n    // Modifiers\n    modifier onlyGov() {\n        require(msg.sender == governance, \"HUB-Token: !governance\");\n        _;\n    }\n\n    constructor () public ERC20Detailed(\"HUB.finance\", \"HD\", 18, 21000000 * 10 ** 18) {\n        governance = tx.origin;\n    }\n\n    /** \n     * Minte Token for Account\n     * @param _account minter\n     * @param _amount amount\n     */\n    function mint(address _account, uint256 _amount) public {\n        require(minters[msg.sender], \"HUB-Token: !minter\");\n        _mint(_account, _amount);\n    }\n    \n    /** \n     * Add minter\n     * @param _minter minter\n     */\n    function addMinter(address _minter) public onlyGov {\n        minters[_minter] = true;\n    }\n    \n    /** \n     * Remove minter\n     * @param _minter minter\n     */\n    function removeMinter(address _minter) public onlyGov {\n        minters[_minter] = false;\n    }\n\n    /** \n     * Set new governance\n     * @param _pendingGov the new governance\n     */\n    function setPendingGov(address _pendingGov)\n        external\n        onlyGov\n    {\n        address oldPendingGov = pendingGov;\n        pendingGov = _pendingGov;\n        emit NewPendingGov(oldPendingGov, _pendingGov);\n    }\n\n    /** \n     * lets msg.sender accept governance\n     */\n    function acceptGov()\n        external {\n        require(msg.sender == pendingGov, \"HUB-Token: !pending\");\n        address oldGov = governance;\n        governance = pendingGov;\n        pendingGov = address(0);\n        emit NewGov(oldGov, governance);\n    }\n\n    /**\n     * @dev See {ERC20-_beforeTokenTransfer}.\n     *\n     * Requirements:\n     *\n     * - minted tokens must not cause the total supply to go over the cap.\n     */\n    function _beforeTokenTransfer(address from, address to, uint256 amount) internal {\n        super._beforeTokenTransfer(from, to, amount);\n\n        if (from == address(0)) { // When minting tokens\n            require(totalSupply().add(amount) <= cap(), \"HUB-Token: Cap exceeded\");\n        }\n    }\n}",
  "sourcePath": "/Users/oker/Desktop/compile/contracts/Token.sol",
  "compiler": {
    "name": "solc",
    "version": "0.5.17+commit.d19bba13.Emscripten.clang"
  },
  "schemaVersion": "3.2.3",
  "updatedAt": "2021-02-04T15:00:32.268Z",
  "devdoc": {
    "methods": {
      "addMinter(address)": {
        "params": {
          "_minter": "minter"
        }
      },
      "cap()": {
        "details": "Returns the cap on the token's total supply."
      },
      "mint(address,uint256)": {
        "params": {
          "_account": "minter",
          "_amount": "amount"
        }
      },
      "removeMinter(address)": {
        "params": {
          "_minter": "minter"
        }
      },
      "setPendingGov(address)": {
        "params": {
          "_pendingGov": "the new governance"
        }
      }
    }
  },
  "userdoc": {
    "methods": {
      "acceptGov()": {
        "notice": "lets msg.sender accept governance"
      },
      "addMinter(address)": {
        "notice": "Add minter"
      },
      "mint(address,uint256)": {
        "notice": "Minte Token for Account"
      },
      "removeMinter(address)": {
        "notice": "Remove minter"
      },
      "setPendingGov(address)": {
        "notice": "Set new governance"
      }
    },
    "notice": "HD Token"
  }
}